:020000040800F2
:10240000684D002099250008DF31000811310008CF
:10241000DB31000849290008F53A000800000000F7
:10242000000000000000000000000000012500087E
:102430006D2C000800000000452500082537000825
:10244000B3250008B3250008B3250008B32500080C
:10245000B3250008B3250008B3250008B3250008FC
:10246000B3250008B3250008B3250008B3250008EC
:10247000B3250008B3250008B3250008B3250008DC
:10248000B3250008B3250008B3250008B3250008CC
:10249000B3250008B3250008B3250008B3250008BC
:1024A000B3250008B3250008B3250008B3250008AC
:1024B000B3250008B3250008B3250008B32500089C
:1024C000B3250008B3250008B3250008B32500088C
:1024D000B3250008B3250008B3250008B32500087C
:1024E000B3250008B3250008B3250008DFF80CD099
:1024F00000F076F800480047D53E0008684D0020FF
:10250000224B19680868B0E8F00F80F30988BFF320
:102510006F8F4FF0000080F311884EF00D0E704762
:102520000000000006480068006880F3088862B672
:1025300061B6BFF34F8FBFF36F8F00DF00BF00BFE7
:1025400008ED00E0EFF30980BFF36F8F0F4B1A68BF
:1025500020E9F00F106008B54FF0500080F31188AB
:10256000BFF34F8FBFF36F8F03F0C8FB4FF0000036
:1025700080F31188BDE8084019680868B0E8F00FDA
:1025800080F30988BFF36F8F704700BF740000208D
:10259000EFF3058070470000064880470648004773
:1025A000FEE7FEE7FEE7FEE7FEE7FEE7FEE7FEE703
:1025B000FEE7FEE735370008ED24000840EA010396
:1025C0009B0703D009E008C9121F08C0042AFAD2E9
:1025D00003E011F8013B00F8013B521EF9D27047AD
:1025E000064C074D06E0E06840F0010394E8070060
:1025F00098471034AC42F6D3FFF77CFF909D00085B
:10260000B09D000821B1826842F00102826003E0BF
:10261000826822F001028260704721B1826842F430
:102620008072826003E0826822F480728260704768
:1026300010B504461248844208D10121401500F02B
:102640001FFE0021601500F01BFE17E00D488442BC
:1026500008D10121001500F013FE0021201500F023
:102660000FFE0BE00848844208D10121C80300F0A6
:1026700007FE00214FF4004000F002FE10BD0000F4
:102680000024014000280140003C01400146002098
:102690008A6802F004020AB1012000E000207047BD
:1026A000014600208A6802F008020AB1012000E019
:1026B0000020704730B502460020002350680F4CC0
:1026C00020400D790C6844EA05242043506090684E
:1026D0000B4C2040D1E902542C434D7944EA450487
:1026E00020439060D06A20F470000C7C641EE4B239
:1026F000234340EA0350D06230BD0000FFFEF0FFEC
:10270000FDF7F1FFF0B504460D4600200021092D2C
:1027100011DDE068A5F10A0606EB4607072606FA72
:1027200007F18843A5F10A0606EB460603FA06F10F
:102730000843E0600CE0206905EB4507072606FA30
:1027400007F1884305EB450603FA06F108432061CB
:10275000072A0FDA606B561E06EB86071F2606FA5D
:1027600007F18843561E06EB860605FA06F1084374
:10277000606322E00D2A0FDA206BD61F06EB860776
:102780001F2606FA07F18843D61F06EB860605FAD0
:1027900006F10843206310E0E06AA2F10D0606EBA3
:1027A00086071F2606FA07F18843A2F10D0606EBFD
:1027B000860605FA06F10843E062F0BD816841F043
:1027C00008018160704721B1826842F4A0028260F2
:1027D00003E0826822F4A00282607047816841F0C1
:1027E000040181607047000000B591B001210C2008
:1027F00000F036FD0121480200F032FD01210846BB
:1028000000F00EFD0720ADF8400000208DF84300D9
:1028100010A9484800F084FA0320ADF8400010A940
:10282000454800F07DFA454800F05CF944480090C6
:102830004448019000200290322003900020049030
:10284000802005904000069080000790202008908E
:102850000002099000200A906946384800F0E8F923
:102860000121364800F031F935484C38FFF7E0FED9
:1028700000200B9001208DF830008DF831004FF4CE
:1028800060200D9000200E9005208DF83C000BA9D3
:102890002B484C38FFF70EFF012129484C38FFF731
:1028A000B1FE012126484C38FFF7B7FE4FF4004037
:1028B00000F0AAFC07230122002121484C38FFF731
:1028C00021FF0723022201211D484C38FFF71AFF80
:1028D0000723032202211A484C38FFF713FF07236E
:1028E0000422082116484C38FFF70CFF0723052265
:1028F000092113484C38FFF705FF11484C38FFF702
:102900005DFF00BF0E484C38FFF7CAFE0028F9D122
:102910000B484C38FFF762FF00BF09484C38FFF7FF
:10292000B5FE0028F9D1012105484C38FFF74BFFCF
:1029300011B000BD00080140000C01400800024039
:102940004C240140641D002000BFFEE71CB502F0CE
:102950007FFC1648082100238A01CDE9001014A14C
:10296000174803F0DBFF1748052100234022CDE97B
:10297000001015A1174803F0D1FF174806210023C6
:102980004FF48072CDE9001014A1174803F0C6FF80
:102990001648032100234FF40072CDE9001014A162
:1029A000174803F0BBFF02F0ABFC1CBD0000002089
:1029B0005461736B5F447369706C6179000000004F
:1029C0009D380008040000205461736B5F4C6564FF
:1029D00000000000C53A0008080000205461736B35
:1029E0005F4B657900000000353A00080C000020BC
:1029F0005461736B5F4372656164466F6F6400007E
:102A00009537000810B502F023FC03F027FA0A49B5
:102A100008607B210848006803F0CCF904210648CF
:102A2000006803F029FA0021642003F0F3FB034956
:102A3000086002F065FC10BD1000002014000020AA
:102A4000F7B582B014460025002602985B2802DB09
:102A5000012005B0F0BD0298001B0A2801DC02200D
:102A6000F7E70398002801DC0320F2E703983D28EC
:102A700001DB0420EDE70120009004EB840C029FB1
:102A8000A7EB0C07781C039F3B1D3946029A00F008
:102A9000CAFA04EB8400401E0299081AC5B20FE07E
:102AA0000398C6B206E004223146284600F0B2FC84
:102AB000701CC6B20398001DB042F4DA681CC5B29F
:102AC0000298A842ECDA0020C3E721B1026842F084
:102AD0000102026004E002684FF6FE731A400260D1
:102AE0007047000001684FF6FE721140016000213E
:102AF000016041608160C1604B49884208D14A4908
:102B00000839496841F00F01474A083A51608AE0A4
:102B100045491431884208D143490839496841F090
:102B2000F001414A083A51607DE03F49283188422E
:102B300008D13D490839496841F470613A4A083A78
:102B4000516070E038493C31884208D13649083933
:102B5000496841F47041344A083A516063E03249AF
:102B60005031884208D130490839496841F4702110
:102B70002D4A083A516056E02B496431884208D109
:102B800029490839496841F47001274A083A5160D7
:102B900049E025497831884208D1234908394968F4
:102BA00041F07061204A083A51603CE01F49884278
:102BB00006D1011F096841F00F01021F116032E0C8
:102BC0001A491431884208D11849091F096841F08F
:102BD000F001164A121F116025E01449283188427D
:102BE00008D11249091F096841F470610F4A121F88
:102BF000116018E00D493C31884208D10B49091F8A
:102C0000096841F47041094A121F11600BE007493D
:102C10005031884207D10549091F096841F47021E4
:102C2000024A121F11607047080002400804024067
:102C300010B50022026847F6F0739A430C6A8B685D
:102C400023430C6923434C6923438C692343CC6998
:102C500023434C6A23438C6A23431A430260CB68A4
:102C600043600B6883604B68C36010BD7047FFB55D
:102C700081B00A9D002601200090DDE9023219464C
:102C8000019800F03AF90120009002A90EC91046FF
:102C900000F033F901200090DDE901211046049B8A
:102CA00000F02BF901200090DDE90323194601987B
:102CB00000F023F90198C4B206E0052220460299EB
:102CC00000F0A8FB601CC4B20398A042F5DA029899
:102CD000C4B206E005222146019800F09BFB601C6F
:102CE000C4B20498A042F5DA0198C4B206E0052205
:102CF0002046049900F08EFB601CC4B20398A042E9
:102D0000F5DA0298C4B206E005222146039800F0E5
:102D100081FB601CC4B20498A042F5DA05B0F0BD96
:102D20002DE9F04102460025002600200023002462
:102D3000002791F803C00CF00F0591F803C00CF0C8
:102D4000100CBCF1000F03D091F802C04CEA05054D
:102D500091F800C0BCF1000F31D0146800202BE0C6
:102D60004FF0010C0CFA00F3B1F800C00CEA0306B6
:102D70009E4220D183004FF00F0C0CFA03F7BC43A6
:102D800005FA03FC4CEA040491F803C0BCF1280FD7
:102D900006D14FF0010C0CFA00FCC2F814C00AE096
:102DA00091F803C0BCF1480F05D14FF0010C0CFAAB
:102DB00000FCC2F810C0401C0828D1D31460B1F840
:102DC00000C0BCF1FF0F34DD546800202EE000F19C
:102DD000080C4FF0010808FA0CF3B1F800C00CEA37
:102DE00003069E4221D183004FF00F0C0CFA03F72B
:102DF000BC4305FA03FC4CEA040491F803C0BCF19F
:102E0000280F05D100F1080C08FA0CF8C2F814805C
:102E100091F803C0BCF1480F07D100F1080C4FF046
:102E2000010808FA0CF8C2F81080401C0828CED31C
:102E30005460BDE8F0810000F0B50A46002300248C
:102E40000021002500F00046B6F1004F02D11D4ED2
:102E5000F16901E01B4E7168C0F3034583B200F4D1
:102E60004016B6F5401F08D121F07061154E766806
:102E700026F07066134F7E6012E000F48016B6F5FF
:102E8000801F06D1032606FA05F4A14341F07061C4
:102E900006E0460D360103FA06F6B14341F07061D3
:102EA00022B1460D360103FA06F6314300F0004622
:102EB000B6F1004F02D1034EF16101E0014E7160A5
:102EC000F0BD000000000140416170472DE9F04174
:102ED0000446884615461E46AC4202DDEFB2254642
:102EE0003C4600BF32464146204600F07BF8601C5D
:102EF00084B2A542F6DABDE8F0812DE9FF4F81B03A
:102F000004460D460398071B0498A0EB0508002F04
:102F100002DD4FF001090EE0002F02DA4FF0FF3919
:102F200009E0049BDAB2E9B2A0B20E9B00F064F8AB
:102F300005B0BDE8F08FB8F1000F02DD4FF0010AD7
:102F40000DE0B8F1000F02DA4FF0FF3A07E0039B03
:102F50009AB2E9B2A0B20E9BFFF7B8FFE8E707FB11
:102F600009F708FB0AF84FEA470B4FEA48000090C0
:102F700047451BDB0098C61B0FE0E9B2A0B20E9AD2
:102F800000F030F84C44002E02DA0098064404E0C9
:102F90000098A0EB0B000644554403988442ECD102
:102FA000E9B2A0B20E9A00F01DF819E0ABEB0806EA
:102FB0000EE0E9B2A0B20E9A00F014F85544002ECB
:102FC00001DA5E4404E00098ABEB000006444C4498
:102FD00004988542EDD1E9B2A0B20E9A00F002F851
:102FE00000BFA5E770B504460D461646E0B232466E
:102FF000294601F077F870BD2DE9F04180460C4676
:1030000015461E46AC4202DD2F4625463C4600BF13
:10301000324621464046FFF7E5FF601CC4B2A54298
:10302000F6DABDE8F0812DE9F04705460C46164674
:103030001F46DDF82090B54202D9A84635464646DF
:10304000BC4202D9A0463C464746BC4207D1B2B278
:10305000E1B2A8B24B46FFF739FFBDE8F087B542B1
:1030600006D1FAB2E1B2A8B24B46FFF7C5FFF4E7CA
:1030700006E0B2B2E1B2A8B24B46FFF727FF641CEC
:10308000BC42F6D900BFE8E7F0B587B000250020C4
:1030900005900690652003903D2004903C2001900F
:1030A0001E200290032601F005F80598C4B20EE038
:1030B0000698C5B206E000222946204600F0AAF98B
:1030C000681CC5B20498A842F5DC601CC4B2039821
:1030D000A042EDDC01200090DDE90323DDE90501DC
:1030E000FFF7C5FD0322DDE90101FFF7A9FC074653
:1030F00001F02CF8384607B0F0BD00000246C2EBE4
:103100004210024B03EB4000405C7047B0000020CF
:1031100000BFFEE70448006800F4006008B9012021
:1031200070470020FCE70000080C0140044880685C
:1031300000F4004008B9012070470020FCE70000BF
:10314000001001400448006800F4806008B90120C4
:1031500070470020FCE70000080C014004480068AC
:1031600000F4807008B9012070470020FCE70000DF
:103170000808014070B504460025002644B9032024
:1031800000F068FE0546042000F064FE06460CE0F0
:10319000102C08D1012000F05DFE0546022000F051
:1031A00059FE064601E0002070BD40F6B830854269
:1031B00001DB0420F8E7B5F57A7F01DC0320F3E7B3
:1031C00040F6B830864201DB0120EDE7B6F57A7FA4
:1031D00001DC0220E8E70020E6E700BFFEE77047D9
:1031E00002490143024A1160704700000000FA05DD
:1031F0000CED00E0024A0A400243024B1A6070479D
:1032000080FFFF1F08ED00E001460020034A5068E0
:1032100020F4404008435060704700000010024016
:1032200029B1064A52690243044B5A6104E0034A39
:1032300052698243014B5A617047000000100240FE
:1032400029B1064AD2690243044BDA6104E0034A19
:10325000D2698243014BDA617047000000100240DE
:1032600029B1064A92690243044B9A6104E0034A79
:1032700092698243014B9A6170470000001002403E
:1032800029B1064AD2680243044BDA6004E0034ADB
:10329000D2688243014BDA607047000000100240A0
:1032A00021B1028842F04002028004E002884FF619
:1032B000BF731A40028070470246002013890B40FA
:1032C0000BB1012000E0002070478181704710B5EC
:1032D0000022028802F441520B884C8823438C88D8
:1032E0002343CC8823430C8923434C8923438C8973
:1032F0002343CC8923431A430280838B4FF2FF740C
:10330000234083830B8A038210BD000010B504465E
:1033100021460548FFF7D9FF00BF02210248FFF709
:10332000CBFF0028F9D010BD0038004010B500F0E8
:1033300001F810BD0CB500200190009033480068E2
:1033400040F480303149086000BF3048006800F424
:10335000003000900198401C0190009818B9019825
:10336000B0F5A06FF1D12948006800F4003010B129
:103370000120009001E0002000900098012843D136
:103380002348006840F010002149086008460068A2
:1033900020F0030008600846006840F00200086062
:1033A0001A4840681949486008464068486008461D
:1033B000406840F4806048600846406820F47C1013
:1033C00048600846406840F4E810486008460068D5
:1033D00040F08070086000BF0C48006800F000708A
:1033E0000028F9D00948406820F0030007494860E8
:1033F0000846406840F00200486000BF034840684B
:1034000000F00C000828F9D10CBD000000100240AB
:103410000020024010B5C0EB4013024C04EB430304
:103420005A5410BDB00000202DE9F74F8AB0044671
:103430000D46002005908046039002902068089079
:103440006068099028680690686807900C9860B1D9
:10345000D4E90001FFF752FE8146D5E90001FFF7EC
:103460004DFE834600BF002003900C98012806D033
:10347000022810D003281AD0042830D123E0B9F153
:10348000020F07D00998401F09904FF0010AD1465A
:1034900048F0010824E0B9F1010F07D00998401D58
:1034A00009904FF0020AD14648F0010818E0B9F13E
:1034B000040F07D00898401F08904FF0030AD14628
:1034C00048F001080CE0B9F1030F07D00898401D3F
:1034D00008904FF0040AD14648F0010800E000BF10
:1034E00000BF08F0010000287ED00898001F0028C7
:1034F00008DB0998002805DB08987F2802DC09987A
:103500003F2811DD20217B48006802F0B5FC8321B3
:103510007848006802F04EFC2068089060680990C6
:1035200004980DB0BDE8F08F0898061F28E0099FA9
:1035300021E039463046FFF7E1FD05900598062861
:1035400011D0059878B120216A48006802F094FCF7
:1035500083216848006802F02DFC206808906068AC
:1035600009900498DDE70598062803D10398401CCC
:10357000C0B203907F1C0998001DB842D9DA761CAE
:103580000898B042D3DA0398192832D100231A469A
:1035900019465948006802F0FFFF5748006801F0DB
:1035A000E9FDC0B20290029800EB8000C0B2029028
:1035B0000C2006210323CDE900101A216920029A6C
:1035C00000F074FE029864280BDB002002901021AA
:1035D0004848006802F050FC83214648006802F029
:1035E000E9FB4021434800E03AE0006802F044FC77
:1035F00001E048F002082068061F0CE0676805E05B
:103600004A4639463046FFF705FF7F1C6068001DBB
:10361000B842F5DA761C2068B042EFDA0898061F47
:103620000CE0099F05E0524639463046FFF7F2FEAE
:103630007F1C0998001DB842F5DA761C0898B04244
:10364000EFDA01200090DDF824C00CF1040361469C
:10365000089A101FFFF7E7FC08982060099860603F
:1036600008F00200022842D1BBF1010F09D0BBF1E2
:10367000020F0AD0BBF1030F0BD0BBF1040F10D126
:103680000BE00798401F07900CE00798401D07903B
:1036900008E00698401F069004E00698401D06903A
:1036A00000E000BF00BF4FF0000B2868061F0CE0D1
:1036B0006F6805E05A4639463046FFF7ABFE7F1C7F
:1036C0006868001DB842F5DA761C2868B042EFDA67
:1036D00000200090D5F804C00CF1040361462A686C
:1036E000101FFFF7A0FC06982860079868600498F0
:1036F00017E700001000002014000020042808D163
:103700004FF0E021096941F004014FF0E02211611E
:1037100007E04FF0E021096921F004014FF0E022B9
:103720001161704710B503F029F9012801D002F0AA
:1037300057FD10BD10B51348006840F00100114955
:10374000086008464068104908400E49486008462D
:1037500000680E4908400B4908600846006820F4DC
:10376000802008600846406820F4FE0048604FF45E
:103770001F008860FFF7DAFD4FF000600449086021
:1037800010BD0000001002400000FFF8FFFFF6FE31
:1037900008ED00E01FB500274FF0640800200390FB
:1037A000002681460190029003F0F8F8039071E042
:1037B0004FF0FF300023012240210090364800687E
:1037C00002F0E8FB074607F0400040285ED103F016
:1037D000E5F806461320B6FBF0F100FB1160401C33
:1037E00000EB800001900B20B6FBF0F100FB1160B4
:1037F000401C00EB800002904FF001090198001F6F
:10380000C4B216E00298C5B20DE0DDE90101FFF790
:1038100075FC30B140212048006802F02DFB4FF0CC
:103820000009681CC5B20298401DA842EDDC601C6E
:10383000C4B20198A042E5DAB9F1000F26D0019890
:10384000001FC4B20FE00298C5B206E00622294666
:103850002046FFF7DFFD681CC5B20298401DA84254
:10386000F4DC601CC4B20198A042ECDA40210A48A2
:10387000006802F09FFA01200090DDF808C00CF10A
:1038800004036146019A101FFFF7CDFB414603A8D0
:1038900001F0D6FF8CE700001000002086B06427FE
:1038A0000020059003F07AF8059000BF00BF0025C6
:1038B000002600243C2003901E200490322001901A
:1038C0001E20029099E01020FFF754FC05464DB9E8
:1038D000701CC6B2052E05D10026DDE90301FFF7F5
:1038E0000DFC054600214548006802F063FA0446D5
:1038F00004F00400042808D10C20062340A21E2155
:103900000090052000F017FD71E004F0020002288D
:103910006DD004F01000102816D100F0CBFB182059
:103920000C233CA200210090084600F004FD00F0AA
:103930000DFC10213148006802F03CFA04212F48A8
:10394000006802F099FA52E004F02000202816D115
:1039500000F0B0FB18200C2331A200210090084693
:1039600000F0E9FC00F0F2FB20212448006802F09E
:1039700021FA04212148006802F07EFA37E004F0C1
:10398000010058B3FFF780FB3C2003901E200490F9
:10399000322001901E2002900C20062323A2002139
:1039A0000090662000F0C7FC2148006801F0AAFEE4
:1039B0000021642002F02EFC1D49086040210F48C0
:1039C000006802F059FA37210C48006802F0F2F959
:1039D00080210A48006802F04FFA08E004F08000F5
:1039E000802804D12A4601A903A8FFF71DFD00F095
:1039F000ADFB394605A801F023FF64E71000002065
:103A00004B6579204C2053746172742047616D6559
:103A100000000000594F552057494E21000000007A
:103A200047414D45204F564552000000736300004A
:103A30001400002008B50A250020009002F0AEFF17
:103A4000009000243BE000F059F900F0CDF8012887
:103A500031D100211A48006802F0ACF9044604F0A4
:103A6000800080280AD102211548006802F004FA7B
:103A700085211348006802F09DF91CE004F0020063
:103A800002280AD180210E48006802F0F5F90721CA
:103A90000B48006802F08EF90DE004F004000428E1
:103AA00009D101210648006802F0E6F986210448A0
:103AB000006802F07FF92946684601F0C1FEC2E7BE
:103AC0001000002008B54FF4FA740020009002F0B6
:103AD00065FF00900BE00648006808B9012000E08F
:103AE0000020034908602146684601F0A9FEF2E77C
:103AF0008C81214200BFFEE702E008C8121F08C106
:103B0000002AFAD170477047002001E001C1121F5E
:103B1000002AFBD1704700BFFEE7000070B50546E4
:103B2000304800EB05142068804700283ED02079FB
:103B3000052802DA0520207152E020790A2803DAEC
:103B40002079401C20714BE0A07A38B90120A07286
:103B500005EB4501491CC8B200F0DCF820890028BB
:103B60003EDDE088218988420DDAE088401C80B281
:103B7000E0802189884233D105EB4501C91CC8B2D8
:103B800000F0C8F82CE0E07A002829DD207B401CFA
:103B9000C0B22073E17A884222DB0020207305EB5B
:103BA0004501491CC8B200F0B5F819E02079052894
:103BB00002DD0520207110E0207918B12079401E27
:103BC00020710AE0A07A012807D10020A07205EB3D
:103BD0004501891CC8B200F09DF80020E0802073E8
:103BE00070BD0000C81D00200B48807A0A4AD27AB6
:103BF000904201D1002070470748807A064A115C44
:103C00001046807A401CC0B290720A2801DB002066
:103C100090720846EFE70000081E002010B500F083
:103C200035F800F001F810BD08B501211C20FFF7A0
:103C300017FB03208DF8020048208DF803004FF495
:103C40000060ADF8000069460D48FFF769F84FF4D1
:103C50000040ADF8000069460A48FFF761F84FF4EC
:103C60008060ADF8000069460548FFF759F84FF449
:103C70008070ADF8000069460348FFF751F808BDB1
:103C8000000C014000100140000801400021154ACD
:103C90009172D1721173002018E00021124A02EBD8
:103CA000001211810221104A02EB00121171002151
:103CB0000D4A02EB001291720B4A02EB0012D17214
:103CC000094A02EB00121173411CC8B20428E4DB5C
:103CD0000649054A11600649116106491162064903
:103CE00011637047081E0020C81D00201531000810
:103CF0002D310008453100085D31000810B5002461
:103D000004E02046FFF70AFF601CC4B2042CF8DB75
:103D100010BD00000649C97A054A50541146C97AB7
:103D2000491CC9B2D1720A2901DB0021D172704746
:103D3000081E002010B50420FFF7E0FC10480068C2
:103D40001049B0FBF1F0104908700D4800680D49AA
:103D5000B0FBF1F44FF47A70444301200B49088022
:103D60004FF0E020006940F002004FF0E0210861D0
:103D700008464461006940F00100086110BD000080
:103D80001800002040420F002C0000202E000020D0
:103D900070B5044602F0F2FD012810D00B480088EF
:103DA000844206D309480088B4FBF0F5284601F0A8
:103DB00007FD06480088B4FBF0F100FB11444FF406
:103DC0007A7104FB01F000F003F870BD2E000020B2
:103DD00070B5034600224FF0E02675690D4E367827
:103DE00003FB06F44FF0E026B16910E04FF0E02647
:103DF000B06988420BD0884202D20E1A324402E0E7
:103E00002E1A0E4432440146A24200D300E0EDE7F0
:103E100000BF70BD2C00002001210120094A12685A
:103E20000AB100200CE0084A12680AB1002007E03D
:103E3000064A1368064A1268521E934200D10220B5
:103E400070470000284900209800002050490020B9
:103E50008400002010B501460022002008E0052360
:103E600003FB0013064C34F813301A44431CD8B239
:103E70000A28F4DB0A20B2FBF0F080B210BD00008B
:103E8000641D002008B501210846FFF7E9F901216A
:103E90000E48FEF7D1FF01210820FFF7E1F9882045
:103EA000ADF8000010208DF8030003208DF802000B
:103EB00069460748FEF734FF08210548FFF704F874
:103EC00080210348FFF700F808BD00000002300021
:103ED000000C014000210C48FFF78CF94FF44070B2
:103EE000FFF77EF9FFF726FFFFF7CCFFFFF796FEFF
:103EF00000F018F8FEF778FCFEF728FDFEF782FDCB
:103F000001F048FE00BFFEE70024000810B502469D
:103F1000012000E050430B00A1F10104E1B2F9D10E
:103F200010BD000000B587B001210820FFF798F907
:103F300001218803FFF784F901210820FFF790F998
:103F40004FF4A040ADF8180010208DF81B0003209E
:103F50008DF81A0006A95348FEF7E2FE4FF4204000
:103F6000ADF8180018208DF81B0006A94D48FEF783
:103F7000D7FE0020ADF804004FF48270ADF80600C3
:103F80000020ADF808000220ADF80A000120ADF8CD
:103F90000C004002ADF80E000820ADF81000002023
:103FA000ADF81200ADF8140001A93F48FFF78FF9F2
:103FB00001213D48FFF774F901203C4908600020C9
:103FC0003B49C1F8B8016420FFF7E2FE0120374900
:103FD000083108600021AE2000F0DCF90021D52076
:103FE00000F0D8F90021802000F0D4F90021A820A9
:103FF00000F0D0F900213F2000F0CCF90021D320BF
:1040000000F0C8F90021084600F0C4F90021402062
:1040100000F0C0F900218D2000F0BCF9002114202F
:1040200000F0B8F90021202000F0B4F900210220AE
:1040300000F0B0F90021A12000F0ACF90021C0206F
:1040400000F0A8F90021DA2000F0A4F900211220E4
:1040500000F0A0F90021812000F09CF90021EF2060
:1040600000F098F90021D92000F094F90021F12006
:1040700000F090F90021DB2000F08CF900213020C5
:1040800000F088F90021A42000F084F90021A62086
:1040900000F080F90021AF2000F07CF900F00AF870
:1040A00007B000BD000C014000380040B081214243
:1040B0000080214270B500240CE0002506E00020BD
:1040C000074901EBC5010855681CC5B2802DF6DB18
:1040D000601CC4B2082CF0DB00F038F870BD0000A2
:1040E00064190020F0B5144600267F2801DC3F2922
:1040F00000DDF0BD0B46CF1701EB5777FF10C7F17E
:104100000707FAB2CF1701EB5777FF10A1EBC707EC
:10411000FDB2C5F107070123BB40DEB24CB10A4B2B
:1041200003EBC0039B5C3343074F07EBC007BB5453
:1041300008E0054B03EBC0039B5CB343024F07EB66
:10414000C007BB5400BFD4E76419002070B5002439
:104150001CE004F1B001C8B2002100F01BF90021FD
:10416000084600F017F90021102000F013F900258F
:1041700008E0084901EBC501085D012100F00AF9DA
:10418000681CC5B2802DF4DB601CC4B2082CE0DBD7
:1041900070BD0000641900202DE9FE4F814688465D
:1041A00016461F46DDE90C4ACDF804802046E2178A
:1041B00004EB5272D2102146E31704EB5373DB1069
:1041C000A4EBC3030BB1012300E000231A447A439C
:1041D000D2B20092A6F12000C6B200255BE0062F05
:1041E00009D1082C07D106EB46002D4901EB400010
:1041F000405D029019E0062F09D10C2C07D106EB87
:104200004600284901EB8000405D02900DE00C2F34
:1042100009D1182C07D106EBC600234901EB800019
:10422000405D029001E0BDE8FE8F4FF0000B2CE0F6
:10423000029800F0800028B1524641464846FFF7F8
:1042400051FF0AE0BAF1000F01D1012000E0002087
:10425000024641464846FFF745FF02984006000ED9
:10426000029008F1010000F0FF080198A8EB00009F
:10427000A04206D1DDF8048009F1010000F0FF0939
:1042800006E00BF1010000F0FF0BBBF1080FCFDBE4
:1042900000BF681CC5B200988542A0DB00BFC2E722
:1042A000E86F000822720008967600082DE9FF4F9B
:1042B00082B0064691461D46DDE90F7A4FF0000BAD
:1042C000002433E0281B401EC1B20A20FFF71EFE67
:1042D000B9FBF0F00A21B0FBF1F201FB1208BBF1CF
:1042E000000F13D1681EA04210DDB8F1000F0BD1F2
:1042F000012007FB0461CDE900A0C8B23B462022A3
:104300000399FFF749FF0FE04FF0010B012008F17F
:104310003001CAB207FB0461CDE900A0C8B23B4638
:104320000399FFF739FF00BF601CC4B2AC42C9DB80
:1043300006B0BDE8F08F2DE9FC4105460E46144657
:104340001F46DDF820801CE0C7F18000A84203DA98
:10435000002506EB0800C6B2C8F14000B04204DAFE
:10436000002005460646FFF7A5FE0120CDE90080A6
:1043700022783B4631462846FFF70EFFE819C5B2C2
:10438000641C20787E2802DC20782028DCDABDE856
:10439000FC81000070B505460C46054804602846BF
:1043A000FEF7B4FF01200349C1F8B00170BD000061
:1043B000B0812142008021422DE9F04105460E46A0
:1043C0001C4807681C480068001D00F0BFFE50B97B
:1043D0001948006890F82C10012088401749096896
:1043E000814316480160681C38B936B1124801682B
:1043F000091D134800F01FFF1AE07C190E480068E1
:104400004460BC4207D20C480168091D0D48006891
:1044100000F0F7FE0CE008480168091D0A48006832
:1044200000F0EFFE09480068844201D207480460AA
:10443000BDE8F08188000020740000208C0000207E
:10444000504900207C00002078000020A4000020BB
:1044500010B5044600F0FCFE23480068401C2249C9
:1044600008602248006840B9204804600846006897
:1044700001280DD100F036FA0AE01D48006838B96D
:104480001A480068C06AE16A884201D81748046087
:1044900018480068401C1749086094F82C10012047
:1044A000884015490968084313490860E16A01EB2F
:1044B0008101124A02EB8100211D00F0BCFE00F0D8
:1044C0001FFF0B48006868B108480068C06AE16ACD
:1044D000884207D24FF0805009490860BFF34F8FE0
:1044E000BFF36F8F10BD0000840000207400002017
:1044F00090000020A00000208C00002080460020BA
:1045000004ED00E010B500F0A3FE10480068D0B93B
:104510000F4800F066FE0F4800F063FE0C480E499D
:1045200008600C480D49086000221021052001F0A8
:10453000B7FE064908600846006820B108A1034894
:10454000006801F0C9F800F0DBFE10BD3800002063
:10455000181E00202C1E00203000002034000020F7
:10456000546D72510000000070B523E001F0BEFBF5
:104570001348006808B9012000E00020054602F059
:104580001BFCBDB900F064FE0D48C068C468201D66
:1045900000F0DCFD0B480068401E0A4908600A482C
:1045A0000068401E0849086000F0AAFE204600F09E
:1045B00060F800BF044800680028D7D170BD000033
:1045C0003C490020840000208000002070B5044693
:1045D0000D46206C70B1216CE0680844E0606168B1
:1045E000E068884201D32068E0602846226CE168D8
:1045F000FDF7E4FF70BD2DE9F04104460F46154676
:104600004FF00008A66B206C40B9206860BB606862
:1046100002F08AFA80460020606025E07DB93946C4
:10462000226CA068FDF7CAFF216CA0680844A06056
:10463000D4E90110884217D32068A06014E03946FD
:10464000226CE068FDF7BAFF216CE068401AE06078
:104650002168E068884203D2216C6068401AE060FB
:10466000022D01D106B1761E701CA0634046BDE844
:10467000F08110B50446206B00F07CFE204600F06F
:1046800079FE10BD002101220C4B1B68012B00D9C3
:1046900001210B4A1268D26A0AB100200DE0094AD2
:1046A0001268012A01D9002007E009B1002004E0C6
:1046B000054A1268054B1B68D01A70478C00002011
:1046C0007400002080460020A40000208800002004
:1046D0000146084A126812680AB9012200E0002265
:1046E0000A600A6822B9034A1268D268106800E0BA
:1046F000002070473000002030B54FF42053174899
:1047000000F007042CB1C01D20F00700134C041B5F
:104710001B1B0246124C22600024114D6C60D01805
:10472000083820F007000F4C206000240D4D2D6844
:104730006C600C4D2D682C601146441A4C60094C7D
:1047400024680C60084D4C682C60084D4C682C6047
:104750004FF00044064D2C6030BD0000401E00208C
:104760005C000020640000206C0000206800002035
:104770007000002000BFFFF7F7FEFFF783FF04463D
:10478000022C1BD301F0B2FA0D4800680D490968EC
:10479000884201D3012000E0002028B940F68C4275
:1047A00009A10EA0FFF7B7F9FFF76CFF0446022C32
:1047B00002D3204600F08AFE02F0FEFADBE700009A
:1047C000A4000020880000202E2E5C4672656552F1
:1047D000544F535C7461736B732E6300784E65782D
:1047E000745461736B556E626C6F636B54696D6565
:1047F000203E3D20785469636B436F756E740000F2
:104800002DE9F04106460D4617469846069C0DB91F
:10481000246000E02760E66325640121204601F062
:1048200067FE0020A064BDE8F08100002DE9FF5F75
:1048300081460F469246DDE90E6B109CAAF10100FD
:10484000216B01EB800828F0070808F0070008B981
:10485000012000E0002028B940F22B321BA12048A3
:10486000FFF759F9002507E0795D04F1340041555F
:10487000785D00B902E06D1C102DF5D300BF00215A
:1048800043200155202E00D31F26E66266640020D7
:10489000A064201D00F0B2FC04F1180000F0AEFC92
:1048A0002461C6F12000A06164620020E06484F805
:1048B000500049464046039A00F036FC2060BBF1A8
:1048C000000F01D0CBF80040BDE8FF9F2E2E5C46C4
:1048D00072656552544F535C7461736B732E630041
:1048E000DC9C000810B5002407E004EB84010F4AAB
:1048F00002EB810000F075FC641C202CF5D30C4801
:1049000000F06FFC0B4800F06CFC0B4800F069FCF9
:104910000A4800F066FC0A4800F063FC04480949B4
:10492000086004480849086010BD00008046002067
:104930000049002014490020284900203C4900205B
:1049400050490020780000207C00002010B501466E
:10495000164800E0006803688B42FBD302464368B8
:1049600013448B4204D143684C682344436001469E
:104970000A464B6813440468A34211D10C4C0368E7
:104980002468A34208D04B680468646823444B60E1
:1049900003681B680B6005E0054B1B680B6001E0BA
:1049A00003680B60884200D0016010BD5C000020ED
:1049B000640000202DE9F04104460D4616461F46CE
:1049C0004FF0000865602461B5420CD8F01BA16966
:1049D000884202D34FF0010811E0211D0948006808
:1049E00000F00FFC0BE0BE4204D2BD4202D34FF0F8
:1049F000010804E0211D0448006800F002FC404664
:104A0000BDE8F081340000203000002070B505467C
:104A100000F01EFCA86B08B9012400E0002400F09F
:104A20006FFC204670BD70B5054600F011FCA86B08
:104A3000E96B884201D1012400E0002400F060FC11
:104A4000204670BD2DE9F3410D460098846C002787
:104A50002CB940F6CE121AA11EA0FFF75CF8A06B8D
:104A6000E16B884201D2012000E0002028B940F625
:104A7000CF1213A11C48FFF74EF8A06BE16B8842E0
:104A80001BD294F945602A4669462046FFF7B3FDDC
:104A90000746701C60B9606A08B9012000E0002078
:104AA00050B904F1240002F0BBF828B1012703E05B
:104AB000701C40B284F8450000BF3846BDE8FC8158
:104AC0002E2E5C4672656552544F535C7175657548
:104AD000652E630070785175657565536574436F15
:104AE0006E7461696E657200949C0008F8B50546A5
:104AF0000F4613480068C068C468201D00F026FBFC
:104B0000E069012818D1A06941192B463A46204690
:104B1000FFF750FF80B1002003462A46014600906F
:104B2000204602F013FA06462EB94FF4027205A190
:104B30000AA0FEF7F0FF00BF2046616A8847F8BD73
:104B4000300000202E2E5C4672656552544F535C37
:104B500074696D6572732E6300000000785265738E
:104B6000756C7400F0B587B070E0039800280CDA1B
:104B700004AE2EB940F2E7223AA140A0FEF7CBFFE7
:104B8000D6E90020B168904700BF039800285DDB9C
:104B9000059C606908B9012000E0002010B9201DC3
:104BA00000F0D4FA02A800F0DDF8054603980A28C0
:104BB0004AD2DFE800F00905072C2E4506082D2F04
:104BC00000BF00BF00BF00BF0498A2698118034660
:104BD0002A462046FFF7EEFEC0B12046616A8847AC
:104BE000E069012812D1002000900498A1694218C0
:104BF00000231946204602F0A9F907462FB940F2D2
:104C0000213218A120A0FEF786FF00BF1DE000BFE3
:104C10001BE000BF0498A061A06908B1012000E07A
:104C2000002028B94FF44E720EA119A0FEF773FFB1
:104C3000A06941192B462A462046FFF7BBFE04E037
:104C4000204600F097FB00E000BF00BF00231A469B
:104C500003A91948006801F067FB002885D107B057
:104C6000F0BD00002E2E5C4672656552544F535CB9
:104C700074696D6572732E63000000007078436183
:104C80006C6C6261636B000078526573756C7400C4
:104C90002820707854696D65722D3E7854696D6571
:104CA00072506572696F64496E5469636B73203E1C
:104CB000203020290000000038000020F8B505460B
:104CC0000C4601F013F8684600F04CF806460098D0
:104CD00020BB44B9B54206D802F06EF831462846EA
:104CE000FFF704FF1CE03CB10E480068006808B9FB
:104CF000012000E000200446A91B22460A48006863
:104D000000F038FD02F058F850B94FF080500749D4
:104D10000860BFF34F8FBFF36F8F01E002F04CF8D4
:104D2000F8BD0000340000203800002004ED00E051
:104D30000A490968096809B9012100E0002121B187
:104D40004FF0FF31064A116006E004490968C9685E
:104D5000C868034A4168116070470000780000206D
:104D6000A400002070B5044601F018FE054607486F
:104D70000068854204D200F00BF80120206001E0B9
:104D80000020206001480560284670BD40000020DA
:104D90002DE9F8432DE021480068C06805681F48E8
:104DA0000068C068C468201D00F0D0F92046616A20
:104DB0008847E06901281CD1A0694619AE4207D98D
:104DC00066602461211D1548006800F01AFA10E0A1
:104DD000002003462A4601460090204602F0B6F81D
:104DE00007462FB940F292320DA113A0FEF793FEB1
:104DF00000BF0A480068006808B9012000E00020F0
:104E00000028C8D00548D0F800800D480068034944
:104E100008600B48C0F80080BDE8F883300000202F
:104E20002E2E5C4672656552544F535C74696D65F5
:104E300072732E630000000078526573756C740005
:104E4000340000200B480068401C08B9012000E035
:104E5000002020B9F42208A112A0FEF75CFE00BFDA
:104E6000502080F31188BFF34F8FBFF36F8F00BFC7
:104E700000BFFEE7440000202E2E5C46726565529E
:104E8000544F535C706F727461626C655C5256442F
:104E9000535C41524D5F434D335C706F72742E63AF
:104EA000000000007578437269746963616C4E6537
:104EB0007374696E67203D3D207E30554C000000C4
:104EC00010B50346002022B903EA010434B10120E1
:104ED00004E003EA01048C4200D1012010BD08B5B2
:104EE00000BF6846FFF7F4FB044620460099FFF731
:104EF000E5FEFFF737FEF4E770B5044600F0A8F9C9
:104F000094F945501AE0A06C38B100212046FFF713
:104F100099FD88B100F01EFD0EE0606A08B901201D
:104F200000E0002038B904F1240001F079FE18B146
:104F300000F010FD00E003E0681E45B2002DE2DC49
:104F400000BFFF2084F8450000F0DAF900F080F996
:104F500094F9445010E0206908B9012000E00020D5
:104F600048B904F1100001F05BFE08B100F0F2FC5A
:104F7000681E45B200E001E0002DECDC00BFFF2020
:104F800084F8440000F0BCF970BD00002DE9F04148
:104F900004464FF0000800F0A9FE3E48006808B93A
:104FA000FFF7AAFB3C4800682040002860D1002C95
:104FB00014D0083404F0070080B104F00700C0F1F9
:104FC0000800044404F0070008B9012000E00020B4
:104FD00020B9BF2231A13BA0FEF79DFD002C47D098
:104FE00044480068844243D8434E3046056801E097
:104FF0002E462D686868A04202D228680028F7D1A2
:1050000024480068854233D0306800F108082868D9
:1050100030606868001B102813D92F1907F00700AB
:1050200008B9012000E0002020B9EC221BA1334880
:10503000FEF771FD6868001B78606C603846FFF70A
:1050400085FC2C4968680968081A2A4908600846DE
:1050500000682B490968884203D22648006828491D
:1050600008600D4968680968084368600020286086
:1050700001F0A2FE08F0070008B9012000E00020BE
:1050800028B94FF4967205A11E48FEF744FD40462C
:10509000BDE8F08164000020700000202E2E5C46E8
:1050A00072656552544F535C706F727461626C65C7
:1050B0005C4D656D4D616E675C686561705F342E37
:1050C0006300000028207857616E74656453697A24
:1050D00065202620706F7274425954455F414C49D7
:1050E000474E4D454E545F4D41534B2029203D3D89
:1050F00020300000680000205C000020CC9A0008EE
:105100006C000020109B00080648006830B105497B
:10511000096801F14800896C491C01600148006878
:105120007047000074000020001F4FF08073036080
:10513000001F21F001030360001F034B03601438BC
:105140000260203870470000454E000801460A6999
:10515000D1E901309860D1E9010358605068884274
:1051600001D188685060002008611068401E1060FE
:105170001068704770B504462CB940F22F6205A143
:1051800009A0FEF7C8FC00F063F8A56B00F0B8F8C2
:10519000284670BD2E2E5C4672656552544F535C96
:1051A00071756575652E63007851756575650000CC
:1051B00005490968886904490968C96AC1F120017B
:1051C000014A1268916170477400002000BF5020AE
:1051D00080F31188BFF34F8FBFF36F8F00BF00BF05
:1051E000FEE700F1080141604FF0FF31816000F1FE
:1051F0000801C16001610021016070470021016167
:10520000704710B502460B685C1C0CB9106907E0CA
:1052100002F1080000E04068446824689C42FAD922
:1052200044684C604C68A160886041600A61146801
:10523000641C146010BD42684A6093688B60936878
:1052400059609160086103685B1C0360704700004F
:1052500010B500BF502080F31188BFF34F8FBFF30C
:105260006F8F00BF0B480068401C0A490860084661
:10527000006801280DD108480068C0B208B90120B3
:1052800000E0002028B94FF4BD7204A10EA0FEF783
:1052900042FC10BD4400002004ED00E02E2E5C46D0
:1052A00072656552544F535C706F727461626C65C5
:1052B0005C525644535C41524D5F434D335C706FBA
:1052C00072742E63000000002820706F72744E56B6
:1052D00049435F494E545F4354524C5F5245472007
:1052E0002620706F727456454354414354495645C5
:1052F0005F4D41534B2029203D3D203000000000F0
:1053000010B50B48006828B940F2811209A114A019
:10531000FEF701FC06480068401E05490860084683
:10532000006820B9002080F3118800BF00BF10BDC5
:10533000440000202E2E5C4672656552544F535C2B
:10534000706F727461626C655C525644535C41527A
:105350004D5F434D335C706F72742E63000000002C
:105360007578437269746963616C4E657374696EB4
:105370006700000070B506463546002E35D0083D62
:105380002C461A4960680968084008B1012000E00D
:10539000002028B94FF4A07215A11FA0FEF7BBFB97
:1053A000206808B9012000E0002028B940F241122D
:1053B0000FA126A0FEF7AFFB0C4960680968084002
:1053C00098B1206888B909496068096888436060B5
:1053D00000F08CFC2549606809680844234908608E
:1053E0002046FFF7B3FA01F0E7FC70BD7000002023
:1053F0002E2E5C4672656552544F535C706F72740A
:1054000061626C655C4D656D4D616E675C68656180
:10541000705F342E63000000282070784C696E6B3A
:105420002D3E78426C6F636B53697A652026207835
:10543000426C6F636B416C6C6F636174656442694D
:1054400074202920213D20300000000070784C6934
:105450006E6B2D3E70784E65787446726565426C51
:105460006F636B203D3D204E554C4C006800002082
:10547000124800684FF47A71B0FBF1F010490860EF
:10548000084600686FF07F41B1FBF0F00D490860FD
:105490000A480068B0FBF0F02D21B1FBF0F00A499A
:1054A0000860064800684FF47A71B0FBF1F0401EC6
:1054B0004FF0E02148610720086170471800002084
:1054C000480000204C000020500000202DE9F0474B
:1054D00004464E480068844201D94C4804684FF0A5
:1054E000E020006920F001004FF0E021086108464B
:1054F0008169601E464A126802FB00154548006833
:10550000854202D9434800682D1A72B6BFF34F8F07
:10551000BFF36F8FFEF780FC80B94FF0E020806909
:105520004FF0E02148610846006940F00100086141
:1055300037480068401E486162B665E04FF0E020E1
:10554000456100204FF0E02188610846006940F085
:1055500001000861A1465FEA090404D0BFF34F8F40
:1055600030BFBFF36F8F4FF0E020D0F8108028F0ED
:1055700001004FF0E021086162B608F48030B8B154
:1055800023490968491E4FF0E0229269AA1A881A35
:1055900020490968884203D31D490968884202D915
:1055A0001B490968481E4FF0E0214861661E12E061
:1055B0001748006860434FF0E0218969471A144892
:1055C0000068B7FBF0F6701C114909684843C01B1E
:1055D0004FF0E021486100204FF0E0218861FFF7A3
:1055E00037FE4FF0E020006940F001004FF0E0216D
:1055F0000861304600F036FB05480068401E4FF059
:10560000E0214861FFF77CFEBDE8F0874C000020F8
:10561000480000205000002070B5FCF7B9FF054697
:10562000102D11D305F1E02090F8F04310480078D8
:10563000844201DB012000E0002028B94FF42A72E7
:105640000CA117A0FEF767FA2048006800F4E0609C
:105650001F490968884201D8012000E0002028B9CC
:105660004FF42E7203A11B48FEF755FA70BD0000DF
:10567000540000202E2E5C4672656552544F535CD8
:10568000706F727461626C655C525644535C415237
:105690004D5F434D335C706F72742E6300000000E9
:1056A000756343757272656E745072696F72697456
:1056B00079203E3D2075634D617853797343616C69
:1056C0006C5072696F726974790000000CED00E033
:1056D00058000020889A0008024600200BE0084B82
:1056E00053F8303033B9064B43F8301003EBC003A6
:1056F0005A6002E0401C0828F1D300BF7047000048
:105700004046002070B5044625462DB940F25D6242
:1057100005A10AA0FEF7FFF9284600F013F8284675
:10572000FFF728FE70BD00002E2E5C4672656552A4
:10573000544F535C71756575652E630070785175B3
:1057400065756500014600200EE0094A02EBC002C3
:1057500052688A4207D10022054B43F8302003EB00
:10576000C0035A6002E0401C0828EED300BF704717
:10577000404600202DE9F04105460E4617462C46CE
:10578000FFF766FD94F94400401C10B9002084F82E
:10579000440094F94500401C10B9002084F84500ED
:1057A000FFF7AEFDA06B28B93A46314604F124005C
:1057B00000F0FEF82046FFF79FFBBDE8F0810000F7
:1057C00070B504460025ACB10F48006808B9012047
:1057D00000E0002028B940F2CF420CA110A0FEF753
:1057E0009AF900F083FA00212046FEF7E5FD01F06A
:1057F000E3FA05463DB94FF0805010490860BFF309
:105800004F8FBFF36F8F70BDAC0000202E2E5C4613
:1058100072656552544F535C7461736B732E6300F1
:1058200075785363686564756C65725375737065DC
:105830006E646564203D3D203000000004ED00E012
:105840002DE9F04704460F464FF000092CB940F20D
:10585000794226A12AA0FEF75EF90FB1012000E0EF
:10586000002028B940F27A4220A12AA0FEF753F97D
:105870002E48006808B9012000E0002028B940F255
:105880007B421AA12AA0FEF746F900F02FFA2F4812
:1058900006682068C5192068B04207D92068A84268
:1058A0000BD9B54209D94FF0010906E02068A8429A
:1058B00001D8B54201D94FF001092560B9F1000FB7
:1058C00003D0A81B0021FEF777FD01F075FA804692
:1058D000B8F1000F07D14FF080501D490860BFF3A9
:1058E0004F8FBFF36F8FBDE8F08700002E2E5C4610
:1058F00072656552544F535C7461736B732E630011
:10590000707850726576696F757357616B6554690D
:105910006D65000028207854696D65496E63726575
:105920006D656E74203E203055202900AC000020AB
:1059300075785363686564756C65725375737065CB
:105940006E646564203D3D2030000000880000202A
:1059500004ED00E001200149086070479800002034
:1059600070B504460D462CB940F6063207A10CA0CE
:10597000FEF7D1F80D48016818312046FFF741FCC9
:1059800001212846FEF718FD70BD00002E2E5C4652
:1059900072656552544F535C7461736B732E630070
:1059A00070784576656E744C6973740074000020DD
:1059B00070B505460E4614462DB940F6313209A1A0
:1059C0000DA0FEF7A8F80F48016818312846FFF728
:1059D00032FC0CB14FF0FF3621463046FEF7ECFCAE
:1059E00070BD00002E2E5C4672656552544F535CAC
:1059F0007461736B732E630070784576656E744CBA
:105A0000697374007400002070B504460D46164694
:105A10002CB940F6173210A114A0FEF77CF81648F6
:105A2000006808B1012000E0002028B940F61B32D0
:105A300009A112A0FEF76FF845F000401649096869
:105A400088611548016818312046FFF7F4FB0121F1
:105A50003046FEF7B1FC70BD2E2E5C467265655275
:105A6000544F535C7461736B732E6300707845768A
:105A7000656E744C69737400AC00002075785363D4
:105A8000686564756C657253757370656E64656482
:105A900020213D20300000007400002070B5054634
:105AA0002C46002D4BD02649E06A0968C96A884215
:105AB00045D2A06900F0004028B921480068C06ABA
:105AC000C0F12000A061E16A01EB81011D4A02EBF7
:105AD00081016069884201D1012000E0002050B3BB
:105AE000201DFFF733FB78B9E06A00EB8000154911
:105AF00051F8200040B994F82C1001208840124938
:105B000009688143104801600D480068C06AE0627E
:105B100094F82C10012088400B49096808430A4971
:105B20000860E16A01EB8101064A02EB8100211D58
:105B3000FFF781FB03E002480068C06AE06270BDC5
:105B400074000020804600208C00002010B5044620
:105B50002CB940F6C13205A109A0FDF7DCFF0B48C6
:105B6000006820600A480068606010BD2E2E5C4608
:105B700072656552544F535C7461736B732E63008E
:105B8000707854696D654F75740000009C000020AA
:105B9000880000201CB51A4800210B466422CDE97C
:105BA000001018A1194800F0B9FE0446012C02D1DA
:105BB00001F096F90446012C15D100BF502080F366
:105BC0001188BFF34F8FBFF36F8F00BF4FF0FF30CF
:105BD0000F49086001200F49086000200E49086045
:105BE00000F0AEFA0BE0601C08B1012000E00020DC
:105BF00028B940F2847209A10DA0FDF78CFF1CBDED
:105C0000A800002049444C450000000075470008EA
:105C1000A400002090000020880000202E2E5C466A
:105C200072656552544F535C7461736B732E6300DD
:105C30007852657475726E20213D20657272434FF3
:105C4000554C445F4E4F545F414C4C4F434154457B
:105C50005F52455155495245445F4D454D4F52594C
:105C60000000000010B504460B48006820440B49B2
:105C70000968884201D8012000E0002028B940F6D8
:105C8000711207A10BA0FDF746FF034800682044EE
:105C90000149086010BD000088000020A400002019
:105CA0002E2E5C4672656552544F535C7461736B63
:105CB000732E63002820785469636B436F756E748C
:105CC000202B20785469636B73546F4A756D702074
:105CD00029203C3D20784E6578745461736B556E75
:105CE000626C6F636B54696D650000000248006868
:105CF000401C014908607047AC00002010B52248E4
:105D0000006818B10120214908603BE000201F49CC
:105D100008601F48006800681D490968096B8842CF
:105D200005D81B48016834310068FFF74FFA19485D
:105D30000068B0FA80F0C0F11F0404EB840016493B
:105D400051F8200008B1012000E0002028B940F6F9
:105D5000F62212A11648FDF7DEFE04EB84010E4A7E
:105D600002EB810041684968416000F10801426826
:105D70008A4202D14168496841604168C968044A61
:105D8000116000BF10BD0000AC0000209800002092
:105D9000740000208C000020804600202E2E5C46DF
:105DA00072656552544F535C7461736B732E63005C
:105DB000489D00082DE9F04105460E462C462DB9B8
:105DC00040F2DF120DA114A0FDF7A5FE06F07F4002
:105DD00008B9012000E0002028B94FF4F07207A1B3
:105DE00010A0FDF798FEFFF733FA27682068B0434C
:105DF0002060FFF785FA3846BDE8F0812E2E5C461C
:105E000072656552544F535C6576656E745F677258
:105E10006F7570732E630000784576656E744772F7
:105E20006F7570002820757842697473546F436CE5
:105E30006561722026206576656E744556454E5420
:105E40005F424954535F434F4E54524F4C5F425947
:105E50005445532029203D3D2030000010B5182026
:105E6000FFF794F8044624B100202060201DFFF7BE
:105E7000B8F9204610BD00002DE9FE4F07468846C0
:105E8000002001903C4600902FB940F21D2229A12C
:105E90002FA0FDF740FE08F07F4008B9012000E088
:105EA000002028B940F21E2222A12CA0FDF733FECB
:105EB00004F1040909F108000290FFF717FFD9F86F
:105EC0000C60206840EA0800206026E0D6F804B0A4
:105ED00035680020009005F07F4A25F07F450AF0E4
:105EE000806028B92068284040B10120009005E07A
:105EF00020682840A84201D101200090009858B1A4
:105F00000AF0807010B1019828430190206840F099
:105F10000071304600F0E0FE5E4602988642D5D120
:105F2000206801998843206000F046FF2068BDE8A2
:105F3000FE8F00002E2E5C4672656552544F535CF6
:105F40006576656E745F67726F7570732E6300009F
:105F5000784576656E7447726F7570002820757885
:105F600042697473546F5365742026206576656E9C
:105F7000744556454E545F424954535F434F4E5407
:105F8000524F4C5F42595445532029203D3D20300B
:105F9000000000002DE9FF4F83B081460D461746F3
:105FA000DDF840804C464FF0000A00200190B9F126
:105FB000000F05D140F24D1240A147A0FDF7ABFD07
:105FC00005F07F4008B9012000E0002028B94FF417
:105FD000A7723AA143A0FDF79EFD0DB1012000E09C
:105FE000002028B940F24F1234A14DA0FDF793FDD7
:105FF00000F0C4FC10B9B8F1000F01D1012000E09D
:10600000002028B94FF4A9722CA14B48FDF783FD5D
:10601000FFF76CFE206800902946069A0098FEF76C
:106020004FFF0290029838B1009E4FF00008B7B1C0
:106030002068A843206012E0B8F1000F01D1009E53
:106040000DE00FB14AF0807A069808B14AF0806AF4
:1060500045EA0A014246201DFFF7D6FC002600F063
:10606000ABFE8346B8F1000F23D0BBF1000F07D180
:106070004FF0805031490860BFF34F8FBFF36F8FEF
:10608000FFF796F8064606F0007080B9FFF7E0F8D3
:10609000266829463046069AFEF712FF18B117B156
:1060A0002068A8432060FFF72BF90020019026F01C
:1060B0007F46304607B0BDE8F08F00002E2E5C46CC
:1060C00072656552544F535C6576656E745F677296
:1060D0006F7570732E630000784576656E74477235
:1060E0006F7570002820757842697473546F57611A
:1060F0006974466F722026206576656E7445564534
:106100004E545F424954535F434F4E54524F4C5F7D
:1061100042595445532029203D3D203000000000C5
:10612000757842697473546F57616974466F722051
:10613000213D203000000000589B000804ED00E0E5
:106140001CB52248014609780191FF2102461170D1
:106150000146097800919DF8001001F050011C4A99
:10616000117007211B4A116009E01A490968491E8C
:10617000184A11609DF800104906090E00919DF81B
:10618000001001F080018029EFD01249096809024E
:10619000104A11601146098801F4E06111600B4A50
:1061A000019911700C48006840F470000A490860B9
:1061B0000846006840F070400860FFF759F9002079
:1061C00006490860FCF7AEF900201CBD00E400E0C1
:1061D000540000205800002020ED00E04400002082
:1061E00010B500BF502080F31188BFF34F8FBFF36D
:1061F0006F8F00BF00F0D8FB18B14FF080500449FA
:10620000086000BF002080F3118800BF10BD0000AF
:1062100004ED00E070B505460E460DB1012000E02A
:10622000002028B940F2BD220CA111A0FDF773FC9B
:10623000AE4201D8012000E0002028B940F2BE2281
:1062400006A10FA0FDF767FC02220021284600F0FE
:1062500027F8044604B1A663204670BD2E2E5C4686
:1062600072656552544F535C71756575652E630098
:1062700075784D6178436F756E7420213D20300034
:106280007578496E697469616C436F756E74203CF2
:106290003D2075784D6178436F756E740000000085
:1062A0002DE9F84305460E4690460DB1012000E069
:1062B000002028B94FF4C4720DA112A0FDF72BFCE9
:1062C0000EB9002701E005FB06F707F14C00FEF7C9
:1062D0005DFE044644B104F14C0943464A4631464A
:1062E00028460094FEF78CFA2046BDE8F8830000AB
:1062F0002E2E5C4672656552544F535C7175657500
:10630000652E6300757851756575654C656E6774AB
:1063100068203E2028205542617365547970655F7E
:1063200074202920300000002DE9FF4782B0054687
:106330000E461F464FF0000A2C462CB940F2DC42B4
:1063400061A166A0FDF7E7FB0EB9206C08B901203A
:1063500000E0002028B940F2DD425BA16148FDF772
:10636000DAFB00F00BFB08B9049808B9012000E043
:10637000002028B94FF49C6253A15B48FDF7CBFB8A
:1063800000BFFEF765FFD4F83890B9F1000F3DD09B
:10639000D4F80C8031462046FEF718F9DFB9A9F190
:1063A0000100A063206810B9FEF7AEFE60602069AE
:1063B00008B9012000E0002010BB04F1100000F03B
:1063C0002FFCE8B14FF0805048490860BFF34F8F71
:1063D000BFF36F8F14E0C4F80C80606A08B9012025
:1063E00000E0002060B904F1240000F019FC38B18D
:1063F0004FF080503D490860BFF34F8FBFF36F8F60
:10640000FEF77EFF012006B0BDE8F087049818B9BA
:10641000FEF776FF0020F6E7BAF1000F04D16846D8
:10642000FFF794FB4FF0010AFEF76AFFFFF75EFCEF
:10643000FEF70EFF94F94400401C10B9002084F8C8
:10644000440094F94500401C10B9002084F8450030
:10645000FEF756FF04A9684600F00AFA40BB204642
:10646000FEF7D4FAF0B1206830B9FEF7F1FE6068AB
:10647000FFF714FBFEF744FF04F124000499FFF733
:106480006FFA2046FEF738FD00F096FC00287FF4F6
:1064900078AF4FF0805015490860BFF34F8FBFF3BE
:1064A0006F8F6EE72046FEF727FD00F085FC68E75A
:1064B0002046FEF721FD00F07FFC2046FEF7A6FAFD
:1064C0000028EED000209EE72E2E5C4672656552B5
:1064D000544F535C71756575652E63007078517506
:1064E00065756500489C0008589B000804ED00E0B5
:1064F00070B505460E462C462CB940F21B121EA163
:1065000022A0FDF708FBFEF7A3FED4E90F122068D6
:1065100001FB020060600020A0632068A060E06BC7
:10652000401E226C216800FB0210E060FF2084F80E
:10653000440084F845009EB9206908B9012000E0B4
:106540000020A8B904F1100000F06AFB80B14FF000
:10655000805010490860BFF34F8FBFF36F8F07E083
:1065600004F11000FEF73DFE04F12400FEF739FEB1
:10657000FEF7C6FE012070BD2E2E5C467265655288
:10658000544F535C71756575652E63007078517555
:106590006575650004ED00E02DE9FF4383B0064614
:1065A00088461D464FF0000934462CB940F2D922E6
:1065B00060A165A0FDF7AFFAB8F1000F01D1206C22
:1065C00008B9012000E0002028B940F2DA2259A1E0
:1065D0005F48FDF7A0FA022D02D1E06B012801D13E
:1065E000012000E0002028B940F2DB2251A15948E7
:1065F000FDF791FA00F0C2F908B9059808B9012031
:1066000000E0002028B940F2DE224AA15248FDF7FE
:1066100082FA00BFFEF71CFEA06BE16B884201D33B
:10662000022D38D12A4641462046FDF7E4FF0746B1
:10663000A06C68B129462046FEF704FA28B34FF053
:10664000805046490860BFF34F8FBFF36F8F1CE047
:10665000606A08B9012000E0002068B904F1240054
:1066600000F0DEFA88B14FF080503C490860BFF37B
:106670004F8FBFF36F8F08E03FB14FF08050374925
:106680000860BFF34F8FBFF36F8FFEF739FE012015
:1066900007B0BDE8F083059818B9FEF731FE002079
:1066A000F6E7B9F1000F04D101A8FFF74FFA4FF058
:1066B0000109FEF725FEFFF719FBFEF7C9FD94F966
:1066C0004400401C10B9002084F8440094F94500AF
:1066D000401C10B9002084F84500FEF711FE05A902
:1066E00001A800F0C5F8F0B92046FEF79CF9A0B16A
:1066F00004F110000599FFF733F92046FEF7FCFB83
:1067000000F05AFB002885D14FF0805013490860F3
:10671000BFF34F8FBFF36F8F7CE72046FEF7ECFB94
:1067200000F04AFB76E72046FEF7E6FB00F044FB6C
:106730000020ADE72E2E5C4672656552544F535CC7
:1067400071756575652E63007078517565756500A6
:10675000F89B0008B09B0008589B000804ED00E07F
:106760002DE9F05F80468A4615461E4644462CB900
:1067700040F29F3235A13AA0FDF7CDF9BAF1000FF2
:1067800001D1206C08B9012000E0002028B94FF4A5
:1067900068722EA13448FDF7BEF9022E02D1E06BDB
:1067A000012801D1012000E0002028B940F2A132E7
:1067B00026A12E48FDF7AFF9FEF72EFF00BF5021AE
:1067C000EFF3118081F31188BFF34F8FBFF36F8F09
:1067D00000BF0746A06BE16B884201D3022E2BD18C
:1067E00094F945B0324651462046FDF704FF0BF1BF
:1067F0000100C8B9A06C40B131462046FEF722F92D
:10680000B8B1B5B10120286013E0606A08B9012071
:1068100000E0002068B904F1240000F001FA40B162
:106820003DB10120286004E00BF1010040B284F882
:1068300045004FF0010901E04FF0000900BF87F368
:10684000118800BF4846BDE8F09F00002E2E5C4630
:1068500072656552544F535C71756575652E6300A2
:106860007078517565756500F89B0008B09B00084D
:106870002DE9F04104460D462CB940F6CB3219A162
:106880001DA0FDF748F92DB940F6CC3215A11DA089
:10689000FDF741F9FEF7DCFC1E4807682868401C3C
:1068A00008B9002619E01C4920680968884204D00C
:1068B0006068B84201D801260FE06068381A29687C
:1068C000884209D228686168791A401A28602046EF
:1068D000FFF73CF9002600E00126FEF711FD3046E7
:1068E000BDE8F0812E2E5C4672656552544F535CB4
:1068F0007461736B732E6300707854696D654F75A6
:106900007400000070785469636B73546F57616949
:1069100074000000880000209C0000202DE9FF4F3B
:1069200085B0804689461746DDE912ABB800FEF710
:106930002DFB064656B15420FEF728FB04460CB149
:10694000266304E03046FEF715FD00E000247CB12C
:106950000020CDE900ABCDE902403A464946404629
:10696000089BFDF763FF2046FDF772FD012501E05E
:106970004FF0FF35284609B0BDE8F08F054909689A
:1069800009B9012005E00449096809B9022000E0BD
:106990000020704790000020AC00002001490868EA
:1069A00070470000880000202DE9F0414FF00008FA
:1069B00042480068002873D141480068451C40489F
:1069C0000560002D1DD13F480068006808B901200E
:1069D00000E0002028B940F6D9123BA13FA0FDF706
:1069E0009AF83848076848480068364908604648B9
:1069F000076046480068401C44490860FEF798F963
:106A000000BF4348006885423CD300BF2D48006862
:106A1000006808B9012000E0002020B14FF0FF30ED
:106A20003B4908602DE027480068C068C468666874
:106A3000B54202D23648066023E0201DFEF786FBF1
:106A4000A06A18B104F11800FEF780FB94F82C102E
:106A5000012088402F49096808432E490860E16AEF
:106A600001EB81012C4A02EB8100211DFEF7E3FBC3
:106A70002A49E06A0968C96A8842C7D34FF0010809
:106A8000C4E700BF25480068C06A00EB80002249C7
:106A900051F82000012801D94FF0010805E0FFE777
:106AA0001F480068401C1E4908601E48006808B165
:106AB0004FF001084046BDE8F0810000AC00002026
:106AC00088000020780000202E2E5C4672656552FA
:106AD000544F535C7461736B732E630028206C6990
:106AE00073744C4953545F49535F454D5054592872
:106AF00020707844656C617965645461736B4C698E
:106B000073742029202900007C0000209C000020B4
:106B1000A40000208C00002080460020740000208B
:106B2000940000209800002070B505462C460026F1
:106B3000002D4BD026480068844201D1012000E09E
:106B4000002028B940F6C76222A127A0FCF7E3FF86
:106B5000A06C28B940F6C9621EA129A0FCF7DBFF92
:106B6000A06C401EA064616CE06A88422ED0A06CCC
:106B700060BB201DFEF7EAFA78B9E06A00EB8000FE
:106B8000254951F8200040B994F82C100120884084
:106B900022490968814321480160606CE062E06A33
:106BA000C0F12000A06194F82C10012088401B49FE
:106BB0000968084319490860E16A01EB8101164A36
:106BC00002EB8100211DFEF736FB0126304670BD29
:106BD000740000202E2E5C4672656552544F535C43
:106BE0007461736B732E63007078544342203D3D93
:106BF00020707843757272656E74544342000000D1
:106C000070785443422D3E75784D75746578657380
:106C100048656C6400000000804600208C00002065
:106C200070B50646F068C4682CB940F661321BA105
:106C30001FA0FCF770FF04F11800FEF787FA204848
:106C40000068A8B9201DFEF781FA94F82C100120E5
:106C500088401C49096808431A490860E16A01EB49
:106C60008101194A02EB8100211DFEF7E4FA04E0DC
:106C700004F118011548FEF7DEFA1549E06A0968C3
:106C8000C96A884204D9012501201249086000E040
:106C90000025FEF74DF8284670BD00002E2E5C46FC
:106CA00072656552544F535C7461736B732E63004D
:106CB0007078556E626C6F636B656454434200007C
:106CC000AC0000208C0000208046002028490020D5
:106CD00074000020980000202DE9F04105460F4681
:106CE0001F48006808B1012000E0002028B940F6E4
:106CF00099321CA120A0FCF70EFF47F0004028604D
:106D0000EC682CB940F6A13216A123A0FCF703FFD2
:106D10002846FEF71BFA201DFEF718FA94F82C10EF
:106D2000012088402049096808431F490860E16A3A
:106D300001EB81011D4A02EB8100211DFEF77BFA68
:106D40001B49E06A0968C96A884204D90126012002
:106D50001849086000E000263046BDE8F0810000D8
:106D6000AC0000202E2E5C4672656552544F535C79
:106D70007461736B732E6300757853636865647513
:106D80006C657253757370656E64656420213D2077
:106D9000706446414C5345007078556E626C6F6369
:106DA0006B656454434200008C0000208046002044
:106DB000740000209800002070B50024002634489C
:106DC000006828B94FF4FD6232A137A0FCF7A3FE9A
:106DD000FEF73EFA2E480068401E2D49086008461E
:106DE000006800284FD13648006800284BD024E0C6
:106DF0003448C068C46804F11800FEF7A7F9201DE4
:106E0000FEF7A4F994F82C10012088402E49096857
:106E100008432D490860E16A01EB81012B4A02EB2E
:106E20008100211DFEF707FA2949E06A0968C96A4D
:106E3000884202D30120274908602248006808B927
:106E4000012000E000200028D2D00CB1FDF770FF37
:106E50002148056865B100BFFFF7A6FD10B101200C
:106E60001C4908606D1E002DF6D100201A490860EB
:106E70001848006838B10126300718490860BFF388
:106E80004F8FBFF36F8FFEF73BFA304670BD0000A7
:106E9000AC0000202E2E5C4672656552544F535C48
:106EA0007461736B732E63007578536368656475E2
:106EB0006C657253757370656E64656400000000E4
:106EC00084000020284900208C00002080460020FB
:106ED00074000020980000209400002004ED00E0E1
:106EE0001CB50024FDF70EFB0B48006850B10B48A1
:106EF0001F2100236422CDE9001009A10A48FFF7F1
:106F00000DFD04462CB940F2331208A10DA0FCF788
:106F100002FE20461CBD0000380000203C0000207E
:106F2000546D722053766300DF4E00082E2E5C46AF
:106F300072656552544F535C74696D6572732E634C
:106F4000000000007852657475726E002DE9FF47ED
:106F500004460D4616461F46DDF830804FF0000906
:106F60002CB94FF4D37217A11CA0FCF7D4FD1D4817
:106F7000006810B3009501960294062D15DAFFF70C
:106F8000FDFC022808D100234246694615480068E6
:106F9000FFF702FB814610E000231A4669461148BC
:106FA0000068FFF7F9FA814607E000233A46694690
:106FB0000C480068FFF7D4FB8146484604B0BDE8A2
:106FC000F08700002E2E5C4672656552544F535C6C
:106FD00074696D6572732E63000000007854696DEA
:106FE0006572000038000020000000000000000072
:106FF00060FA600000E0C000E0C000247E247E242F
:107000000024D456480000C6C81026C6006C926AF8
:10701000040A0000E0C0000000007C8200000000C4
:10702000827C000000107C387C100010107C101056
:1070300000000706000000101010101000000606E7
:107040000000000408102040007C8A92A27C00000E
:1070500042FE020000468A92926200449292926C32
:1070600000182848FE0800F49292928C003C52923C
:10707000920C00808E90A0C0006C9292926C006086
:1070800092929478000036360000000037360000F7
:107090000010284482000024242424240000824478
:1070A00028100040809A9060007C82BAAA78007E06
:1070B0008888887E00FE9292926C007C8282824454
:1070C00000FE8282827C00FE9292928200FE90906C
:1070D0009080007C8292925E00FE101010FE0000F4
:1070E00082FE8200000C020202FC00FE1028448294
:1070F00000FE0202020200FE402040FE00FE402090
:1071000010FE007C8282827C00FE90909060007C69
:10711000828A847A00FE9090986600649292924CE3
:10712000008080FE808000FC020202FC00F8040265
:1071300004F800FC023C02FC00C6281028C600E04F
:10714000100E10E0008E92A2C2000000FE828200AB
:1071500000402010080400008282FE0000204080D1
:1071600040200101010101010000C0E00000000415
:107170002A2A2A1E00FE2222221C001C222222145D
:10718000001C222222FE001C2A2A2A1000107E90B7
:10719000900000182525253E00FE20201E0000003E
:1071A00000BE020000020121BE0000FE0814220001
:1071B000000000FE0200003E2018201E003E20209D
:1071C0001E00001C2222221C003F2222221C001C26
:1071D0002222223F00221E22201000102A2A2A04E6
:1071E00000207C222400003C02043E0000380402FF
:1071F0000438003C060C063C00360808360000390E
:1072000005063C0000262A2A320000107C828200FB
:10721000000000EE0000000082827C1000408040F0
:1072200080000000000000000000000000000000DE
:1072300000003F400000000000000000300040005F
:1072400030004000000009000BC03D000BC03D00B5
:10725000090018C024407FE022403180000018005F
:1072600024C01B000D803240018003801C40274059
:107270001C8007400040100060000000000000007B
:1072800000000000000000001F802040402000009F
:10729000402020401F8000000000090006001F80E1
:1072A000060009000000040004003F800400040000
:1072B000000000100060000000000000000004005A
:1072C000040004000400040000000000004000006E
:1072D000000000000000002001C00600380040004F
:1072E00000001F802040204020401F800000000040
:1072F00010403FC000400000000018C02140224064
:1073000024401840000010802040244024401B806E
:10731000000002000D0011003FC0014000003C8051
:10732000244024402440238000001F802440244027
:107330003440038000003000200027C038002000C7
:1073400000001B802440244024401B8000001C00BF
:1073500022C0224022401F800000000000000840A0
:1073600000000000000000000000046000000000B9
:107370000000000004000A001100208040400900C5
:1073800009000900090009000000000040402080B9
:1073900011000A00040018002000234024001800F7
:1073A00000001F802040274029401F40000000406F
:1073B00007C039000F0001C0004020403FC02440FA
:1073C00024401B8000001F8020402040204030804F
:1073D000000020403FC0204020401F80000020408F
:1073E0003FC024402E4030C0000020403FC0244019
:1073F0002E00300000000F0010802040224033801B
:10740000020020403FC0040004003FC02040204054
:1074100020403FC02040204000000060202020206D
:107420003FC02000200020403FC024400B0030C05F
:10743000204020403FC020400040004000C03FC0EE
:107440003C0003C03C003FC0000020403FC00C4057
:1074500023003FC020001F802040204020401F808C
:10746000000020403FC024402400180000001F807E
:107470002140214020E01FA0000020403FC02440C8
:10748000260019C0004018C024402440224031800A
:107490000000300020403FC02040300000002000AD
:1074A0003F80004000403F80200020003E0001C09F
:1074B000070038002000380007C03C0007C0380033
:1074C0000000204039C0060039C0204000002000E4
:1074D000384007C0384020000000304021C026401E
:1074E000384020C00000000000007FE04020402025
:1074F0000000000070000C0003800040000000004D
:10750000402040207FE000000000000020004000FC
:1075100020000000000000100010001000100010FB
:10752000001000000000400000000000000000000B
:1075300002800540054003C0004020003FC00440D9
:107540000440038000000000038004400440064023
:10755000000000000380044024403FC000400000C1
:1075600003800540054003400000000004401FC0A8
:10757000244024402000000002E005500550065041
:10758000042020403FC00440040003C0004000002D
:10759000044027C00040000000000010001004104C
:1075A00027E00000000020403FC00140070004C069
:1075B0000440204020403FC000400040000007C081
:1075C000040007C0040003C00000044007C00440DA
:1075D000040003C000400000038004400440038016
:1075E0000000041007F00450044003800000000075
:1075F00003800440045007F00010044007C002401C
:10760000040004000000000006400540054004C0DE
:107610000000000004001F8004400040000004003F
:1076200007800040044007C000400400070004C079
:10763000018006000400060001C0070001C006002A
:107640000000044006C0010006C004400000041011
:10765000071004E00180060004000000044005C09B
:107660000640044000000000000004007BE04020D1
:107670000000000000000000FFF00000000000001B
:1076800040207BE00400000000004000800040003B
:10769000200020004000000000000000000000006A
:1076A00000000000000000000000000000000000DA
:1076B00000000000000000000000000000000000CA
:1076C0000000000000000000000F80380FFE380F9F
:1076D00080380000000000000000000000000000F2
:1076E000000000000100000600000C00003800004F
:1076F0003100000600000C000038000030000000DF
:1077000000000000000061800067F807F980006158
:10771000800061800061800061800067F807F98067
:1077200000618000000000000000000001C0E003D4
:10773000E0F00630080418081FFFFE040E08078753
:10774000F00381E000000000000001F000060C00E2
:10775000040408060C7001F9C0000E00003BE000B4
:10776000EC18070808040C180003E00000000001F2
:10777000E00007F003F818041C0804170807E1D01C
:1077800003C0E00023B0003C080020080000100007
:1077900000000000000100003100003200001C0069
:1077A00000000000000000000000000000000000D9
:1077B00000000000000000000000000000000000C9
:1077C0000000000000007F0001FFC00780F00C00F7
:1077D0001810000420000200000000000020000239
:1077E0001000040C00180780F001FFC0007F0000AB
:1077F0000000000000000000000000000000000089
:1078000000004200006600006600003C0000180016
:1078100003FFC0001800003C000066000066000086
:1078200042000000000008000008000008000008F6
:107830000000080001FFC000080000080000080068
:1078400000080000080000000000000100003100F6
:10785000003200001C0000000000000000000000DA
:107860000000000000000000000000000000080010
:1078700000080000080000080000080000080000E0
:1078800008000008000008000008000000000000D8
:107890000000000000003800003800003800000040
:1078A00000000000000000000000000000000000D8
:1078B000000000000000000600001C000070000135
:1078C00080000E0000380000C0000700001C00000F
:1078D000300000000000000000007F8001FFE00396
:1078E00080700600180400080400080600180380D1
:1078F0007001FFE0007F8000000000000000000039
:1079000001000801000801000803FFF807FFF80064
:10791000000800000800000800000000000000004F
:107920000001C03802C0580400980401180402186D
:10793000040418061C1803F81801E0F80000000001
:10794000000000000001C0E003C0F00400080408CB
:107950000804080806180803F41801E7F00001E01D
:10796000000000000000000000000300000D000007
:10797000110000610000810803010807FFF80FFFF4
:10798000F80001080001080000000000000000E00D
:1079900007FCD0060808061008061008061008069E
:1079A0001838060FF00607C00000000000000000B5
:1079B00000003F8001FFE003843002081804100833
:1079C000041008041008071810030FF00007C00087
:1079D000000000000000000003C0000700000600D7
:1079E000000600F80607F806180006E00007000089
:1079F00006000000000000000001E1E003F7F006CF
:107A00003410041808041808040C08040C0806169E
:107A10001803F3F001C1E000000000000000F800CE
:107A200003FC3003063804020804020804020804B8
:107A300004100308F001FFC0007F000000000000F8
:107A4000000000000000000000000000000070388E
:107A500000703800703800000000000000000000D6
:107A60000000000000000000000000000000000016
:107A70000000301A00301C00000000000000000070
:107A800000000000000000000000000000080000EE
:107A9000140000220000410000808001004002002C
:107AA0002004001008000800000000000000210071
:107AB0000021000021000021000021000021000021
:107AC0002100002100002100002100000000000032
:107AD000000000000800080400100200200100401F
:107AE0000080800041000022000014000008000017
:107AF000000000000003C00004C0000400000800F3
:107B000038080F380808380810000C300007E0006B
:107B100003C000000000000000003F8000FFE00301
:107B20008070020F1006708804C088048308047FE8
:107B30008802C09003012000FE40000008000018E9
:107B40000001F8003E0801C20007020007E2000041
:107B5000FE00001FC80001F8000038000008040003
:107B60000807FFF807FFF8040808040808040808D5
:107B700004080806180803F41801E7F00001E00003
:107B80000000000000003F8001FFE0038070020061
:107B9000180400080400080400080400100600206F
:107BA0000780C000000004000807FFF807FFF80482
:107BB00000080400080400080400180200100380F4
:107BC0007001FFE0007F8000000004000807FFF85C
:107BD00007FFF80408080408080408080408080453
:107BE0003E080400080600180100600000000400C0
:107BF0000807FFF807FFF804080804080004080055
:107C0000040800043E000600000600000180000099
:107C10000000000000003F8001FFE00380700600CC
:107C2000180400080402080402080203F00783F0A5
:107C300000020000020004000807FFF807FFF80434
:107C400008080008000008000008000008000408F8
:107C50000807FFF807FFF804000800000000000014
:107C600004000804000804000807FFF807FFF804F0
:107C700000080400080400080000000000000000E4
:107C800000000006000007000001040001040001DC
:107C900004000307FFFE07FFFC04000004000004CB
:107CA000000004000807FFF807FFF8040C0800189C
:107CB00000003E0004C7800503C80600F804003831
:107CC00004001800000804000807FFF807FFF80484
:107CD000000800000800000800000800000800007C
:107CE0000800001800006000000004000807FFF80A
:107CF00007800807FC00007FC00003F80007C000F1
:107D0000780007800807FFF807FFF8040008040060
:107D10000807FFF807000803C00000E00000380073
:107D2000001E000007000001C00400F007FFF80477
:107D30000000000000007F8001FFE003807006006B
:107D40001804000804000806001803003001FFE0D2
:107D5000007F8000000004000807FFF807FFF80418
:107D60000408040400040400040400040400060CD5
:107D70000003F80001F000000000000000007F8018
:107D800001FFE00380700600880400880400C80634
:107D9000003C03003E01FFE6007F84000000040079
:107DA0000807FFF807FFF8040808040800040C009F
:107DB000040F00040BC00610F003F03801E00800C7
:107DC000000800000001E0F803F03006301004184D
:107DD00008041808040C08040C080206180207F02E
:107DE0000781E0000000018000060000040000049C
:107DF000000004000807FFF807FFF804000804006B
:107E00000004000006000001800004000007FFE0FD
:107E100007FFF00400180000080000080000080038
:107E2000000800000804001007FFE0040000040040
:107E30000006000007E00007FE00041FE00001F854
:107E40000000380001E0043E0007C0000600000406
:107E5000000004000007E00007FFC0041FF800074F
:107E6000C007F80007FF80043FF80007C004F800CF
:107E700007000004000000000004000806001807C6
:107E8000C07805F1C8003E00001F800463E8078049
:107E9000F8060018040008000000040000060000B6
:107EA00007800007E008047C08001FF80007F800BE
:107EB000180804E0080700000600000400000000A5
:107EC000000100080600380400F80403E8040F0865
:107ED000047C0805F00807C00807001804006000CB
